{
  "contractName": "Lottery",
  "abi": [
    {
      "constant": true,
      "inputs": [],
      "name": "owner",
      "outputs": [
        {
          "name": "",
          "type": "address"
        }
      ],
      "payable": false,
      "stateMutability": "view",
      "type": "function"
    },
    {
      "constant": true,
      "inputs": [
        {
          "name": "",
          "type": "address"
        }
      ],
      "name": "players_inputs",
      "outputs": [
        {
          "name": "",
          "type": "uint256"
        }
      ],
      "payable": false,
      "stateMutability": "view",
      "type": "function"
    },
    {
      "constant": true,
      "inputs": [
        {
          "name": "",
          "type": "uint256"
        }
      ],
      "name": "players",
      "outputs": [
        {
          "name": "",
          "type": "address"
        }
      ],
      "payable": false,
      "stateMutability": "view",
      "type": "function"
    },
    {
      "inputs": [],
      "payable": false,
      "stateMutability": "nonpayable",
      "type": "constructor"
    },
    {
      "constant": false,
      "inputs": [],
      "name": "getNumberOfPlayers",
      "outputs": [
        {
          "name": "",
          "type": "uint256"
        }
      ],
      "payable": false,
      "stateMutability": "nonpayable",
      "type": "function"
    },
    {
      "constant": false,
      "inputs": [],
      "name": "getBalance",
      "outputs": [
        {
          "name": "",
          "type": "uint256"
        }
      ],
      "payable": false,
      "stateMutability": "nonpayable",
      "type": "function"
    },
    {
      "constant": false,
      "inputs": [],
      "name": "play",
      "outputs": [],
      "payable": true,
      "stateMutability": "payable",
      "type": "function"
    },
    {
      "constant": false,
      "inputs": [],
      "name": "chooseWinner",
      "outputs": [],
      "payable": false,
      "stateMutability": "nonpayable",
      "type": "function"
    },
    {
      "constant": false,
      "inputs": [
        {
          "name": "recipient",
          "type": "address"
        }
      ],
      "name": "boom",
      "outputs": [],
      "payable": false,
      "stateMutability": "nonpayable",
      "type": "function"
    }
  ],
  "bytecode": "0x608060405234801561001057600080fd5b5033600260006101000a81548173ffffffffffffffffffffffffffffffffffffffff021916908373ffffffffffffffffffffffffffffffffffffffff1602179055506000600260146101000a81548160ff0219169083600181111561007157fe5b0217905550610530806100856000396000f3fe60806040526004361061008e576000357c0100000000000000000000000000000000000000000000000000000000900463ffffffff16806312065fe014610093578063668a2f67146100be5780638da5cb5b1461010f57806393e84cd914610166578063cd38aa8714610170578063d5394c3614610187578063f71d96cb146101ec578063fd6673f514610267575b600080fd5b34801561009f57600080fd5b506100a8610292565b6040518082815260200191505060405180910390f35b3480156100ca57600080fd5b5061010d600480360360208110156100e157600080fd5b81019080803573ffffffffffffffffffffffffffffffffffffffff169060200190929190505050610297565b005b34801561011b57600080fd5b5061012461030c565b604051808273ffffffffffffffffffffffffffffffffffffffff1673ffffffffffffffffffffffffffffffffffffffff16815260200191505060405180910390f35b61016e610332565b005b34801561017c57600080fd5b50610185610426565b005b34801561019357600080fd5b506101d6600480360360208110156101aa57600080fd5b81019080803573ffffffffffffffffffffffffffffffffffffffff1690602001909291905050506104a1565b6040518082815260200191505060405180910390f35b3480156101f857600080fd5b506102256004803603602081101561020f57600080fd5b81019080803590602001909291905050506104b9565b604051808273ffffffffffffffffffffffffffffffffffffffff1673ffffffffffffffffffffffffffffffffffffffff16815260200191505060405180910390f35b34801561027357600080fd5b5061027c6104f7565b6040518082815260200191505060405180910390f35b600090565b600260009054906101000a900473ffffffffffffffffffffffffffffffffffffffff1673ffffffffffffffffffffffffffffffffffffffff163373ffffffffffffffffffffffffffffffffffffffff161415156102f357600080fd5b8073ffffffffffffffffffffffffffffffffffffffff16ff5b600260009054906101000a900473ffffffffffffffffffffffffffffffffffffffff1681565b66038d7ea4c680003411151561034757600080fd5b6000600181111561035457fe5b600260149054906101000a900460ff16600181111561036f57fe5b14151561037b57600080fd5b346000803373ffffffffffffffffffffffffffffffffffffffff1673ffffffffffffffffffffffffffffffffffffffff1681526020019081526020016000208190555060013390806001815401808255809150509060018203906000526020600020016000909192909190916101000a81548173ffffffffffffffffffffffffffffffffffffffff021916908373ffffffffffffffffffffffffffffffffffffffff16021790555050565b600260009054906101000a900473ffffffffffffffffffffffffffffffffffffffff1673ffffffffffffffffffffffffffffffffffffffff163373ffffffffffffffffffffffffffffffffffffffff1614151561048257600080fd5b670de0b6b3a7640000610493610292565b11151561049f57600080fd5b565b60006020528060005260406000206000915090505481565b6001818154811015156104c857fe5b906000526020600020016000915054906101000a900473ffffffffffffffffffffffffffffffffffffffff1681565b600060018054905090509056fea165627a7a72305820e2b6dbced92a658c007ba549992fd51f8257521d00ffb2467c2bf71d501dfdd80029",
  "source": "pragma solidity >=0.4.21 <0.6.0;\n\n// 1 ether = 1000000000000000000 wei\n\ncontract Lottery {\n\tmapping (address => uint) public players_inputs;\n\taddress[] public players;\n\taddress public owner;\n\tenum LotteryStatus {Open, Closed}\n\tLotteryStatus state;\n\n    constructor() public {\n        owner = msg.sender;\n        state = LotteryStatus.Open;\n\t}\n\n\tfunction getNumberOfPlayers() public returns(uint256) {\n\t\treturn players.length;\n\t}\n\n\tfunction getBalance() public returns(uint256) {\n\t\taddress(this).balance;\n\t}\n\n\tfunction play() public payable {\n\t\trequire(msg.value > 0.001 ether);\n\t\trequire(state == LotteryStatus.Open);\n\n\t\tplayers_inputs[msg.sender] = msg.value;\n\t\tplayers.push(msg.sender);\n\t}\n\n\tfunction chooseWinner() public {\n\t\trequire(msg.sender == owner);\n\t\trequire(getBalance() > 1.00 ether);\n\n\n\t}\n\n\tfunction cleanMapping() internal {\n\t\tfor(uint i=0; i < players.length; ++i){\n\t\t\tplayers_inputs[players[i]] = 0;\n\t\t}\n\t\tplayers.length = 0;\n\t}\n\n\tfunction boom(address payable recipient) public {\n\t\trequire(msg.sender == owner);\n\t\tselfdestruct(recipient);\n\t}\n\n\tfunction random(uint scope) private view returns (uint) {\n\t\treturn uint(keccak256(abi.encodePacked(now, block.difficulty, players))) % scope;\n \t}\n}",
  "sourcePath": "/home/wjezowsk/Desktop/projek_zaliczeniowy/contracts/Lottery.sol",
  "compiler": {
    "name": "solc",
    "version": "0.5.0+commit.1d4f565a.Emscripten.clang"
  },
  "schemaVersion": "3.0.9",
  "updatedAt": "2019-07-14T15:55:48.357Z",
  "devdoc": {
    "methods": {}
  },
  "userdoc": {
    "methods": {}
  }
}